{
  "_format": "hh-sol-artifact-1",
  "contractName": "ProofRegistry",
  "sourceName": "contracts/ProofRegistry.sol",
  "abi": [
    {
      "anonymous": false,
      "inputs": [
        {
          "indexed": false,
          "internalType": "bytes32",
          "name": "hash",
          "type": "bytes32"
        },
        {
          "indexed": false,
          "internalType": "string",
          "name": "docId",
          "type": "string"
        },
        {
          "indexed": true,
          "internalType": "address",
          "name": "sender",
          "type": "address"
        },
        {
          "indexed": false,
          "internalType": "uint256",
          "name": "timestamp",
          "type": "uint256"
        }
      ],
      "name": "Anchored",
      "type": "event"
    },
    {
      "inputs": [
        {
          "internalType": "bytes32",
          "name": "hash",
          "type": "bytes32"
        },
        {
          "internalType": "string",
          "name": "docId",
          "type": "string"
        }
      ],
      "name": "anchor",
      "outputs": [],
      "stateMutability": "nonpayable",
      "type": "function"
    },
    {
      "inputs": [
        {
          "internalType": "bytes32",
          "name": "hash",
          "type": "bytes32"
        }
      ],
      "name": "isAnchored",
      "outputs": [
        {
          "internalType": "bool",
          "name": "",
          "type": "bool"
        }
      ],
      "stateMutability": "view",
      "type": "function"
    }
  ],
  "bytecode": "0x608060405234801561001057600080fd5b50610246806100206000396000f3fe608060405234801561001057600080fd5b50600436106100365760003560e01c80631a8512ea1461003b5780634f0b580114610050575b600080fd5b61004e61004936600461013b565b610087565b005b61007361005e3660046101b7565b60009081526020819052604090205460ff1690565b604051901515815260200160405180910390f35b60008381526020819052604090205460ff16156100dd5760405162461bcd60e51b815260206004820152601060248201526f105b1c9958591e48185b98da1bdc995960821b604482015260640160405180910390fd5b60008381526020819052604090819020805460ff191660011790555133907fa1eeb7c221b6611c4c2dcd22cfc83e16041c3706f192f53b58cfff3afcbe776c9061012e9086908690869042906101d0565b60405180910390a2505050565b60008060006040848603121561015057600080fd5b83359250602084013567ffffffffffffffff8082111561016f57600080fd5b818601915086601f83011261018357600080fd5b81358181111561019257600080fd5b8760208285010111156101a457600080fd5b6020830194508093505050509250925092565b6000602082840312156101c957600080fd5b5035919050565b848152606060208201528260608201528284608083013760006080848301015260006080601f19601f86011683010190508260408301529594505050505056fea2646970667358221220e5fa22001de8ffc4370d052f50767f3e8973c1ed44de305ea2c69e9114ca93f064736f6c63430008180033",
  "linkReferences": {},
  "deployedLinkReferences": {}
}